{
  "_format": "hh-sol-artifact-1",
  "contractName": "ethereumSender",
  "sourceName": "contracts/ethereumSender.sol",
  "abi": [
    {
      "anonymous": false,
      "inputs": [
        {
          "indexed": false,
          "internalType": "address",
          "name": "from",
          "type": "address"
        },
        {
          "indexed": false,
          "internalType": "address",
          "name": "getter",
          "type": "address"
        },
        {
          "indexed": false,
          "internalType": "uint256",
          "name": "amount",
          "type": "uint256"
        },
        {
          "indexed": false,
          "internalType": "string",
          "name": "word",
          "type": "string"
        },
        {
          "indexed": false,
          "internalType": "uint256",
          "name": "timestamp",
          "type": "uint256"
        },
        {
          "indexed": false,
          "internalType": "string",
          "name": "assign",
          "type": "string"
        }
      ],
      "name": "Transfer",
      "type": "event"
    },
    {
      "inputs": [
        {
          "internalType": "address payable",
          "name": "getter",
          "type": "address"
        },
        {
          "internalType": "uint256",
          "name": "amount",
          "type": "uint256"
        },
        {
          "internalType": "string",
          "name": "word",
          "type": "string"
        },
        {
          "internalType": "string",
          "name": "assign",
          "type": "string"
        }
      ],
      "name": "addToBlockchain",
      "outputs": [],
      "stateMutability": "nonpayable",
      "type": "function"
    },
    {
      "inputs": [],
      "name": "getAllTransactions",
      "outputs": [
        {
          "components": [
            {
              "internalType": "address",
              "name": "from",
              "type": "address"
            },
            {
              "internalType": "address",
              "name": "getter",
              "type": "address"
            },
            {
              "internalType": "uint256",
              "name": "amount",
              "type": "uint256"
            },
            {
              "internalType": "string",
              "name": "word",
              "type": "string"
            },
            {
              "internalType": "uint256",
              "name": "timestamp",
              "type": "uint256"
            },
            {
              "internalType": "string",
              "name": "assign",
              "type": "string"
            }
          ],
          "internalType": "struct ethereumSender.senderStruct[]",
          "name": "",
          "type": "tuple[]"
        }
      ],
      "stateMutability": "view",
      "type": "function"
    }
  ],
  "bytecode": "0x608060405234801561001057600080fd5b50610b22806100206000396000f3fe608060405234801561001057600080fd5b50600436106100365760003560e01c806327506f531461003b578063cc2d7ead14610059575b600080fd5b610043610075565b604051610050919061086e565b60405180910390f35b610073600480360381019061006e9190610596565b6102b8565b005b60606000805480602002602001604051908101604052809291908181526020016000905b828210156102af57838290600052602060002090600602016040518060c00160405290816000820160009054906101000a900473ffffffffffffffffffffffffffffffffffffffff1673ffffffffffffffffffffffffffffffffffffffff1673ffffffffffffffffffffffffffffffffffffffff1681526020016001820160009054906101000a900473ffffffffffffffffffffffffffffffffffffffff1673ffffffffffffffffffffffffffffffffffffffff1673ffffffffffffffffffffffffffffffffffffffff1681526020016002820154815260200160038201805461018290610a1d565b80601f01602080910402602001604051908101604052809291908181526020018280546101ae90610a1d565b80156101fb5780601f106101d0576101008083540402835291602001916101fb565b820191906000526020600020905b8154815290600101906020018083116101de57829003601f168201915b505050505081526020016004820154815260200160058201805461021e90610a1d565b80601f016020809104026020016040519081016040528092919081815260200182805461024a90610a1d565b80156102975780601f1061026c57610100808354040283529160200191610297565b820191906000526020600020905b81548152906001019060200180831161027a57829003601f168201915b50505050508152505081526020019060010190610099565b50505050905090565b60006040518060c001604052803373ffffffffffffffffffffffffffffffffffffffff1681526020018673ffffffffffffffffffffffffffffffffffffffff16815260200185815260200184815260200142815260200183815250908060018154018082558091505060019003906000526020600020906006020160009091909190915060008201518160000160006101000a81548173ffffffffffffffffffffffffffffffffffffffff021916908373ffffffffffffffffffffffffffffffffffffffff16021790555060208201518160010160006101000a81548173ffffffffffffffffffffffffffffffffffffffff021916908373ffffffffffffffffffffffffffffffffffffffff1602179055506040820151816002015560608201518160030190805190602001906103f0929190610461565b506080820151816004015560a0820151816005019080519060200190610417929190610461565b5050507f416cfa4330a4565f45c2fd2dd4826a83a37443aba2ce6f79477c7355afac35fa338585854286604051610453969594939291906107ff565b60405180910390a150505050565b82805461046d90610a1d565b90600052602060002090601f01602090048101928261048f57600085556104d6565b82601f106104a857805160ff19168380011785556104d6565b828001600101855582156104d6579182015b828111156104d55782518255916020019190600101906104ba565b5b5090506104e391906104e7565b5090565b5b808211156105005760008160009055506001016104e8565b5090565b6000610517610512846108c1565b610890565b90508281526020810184848401111561052f57600080fd5b61053a8482856109db565b509392505050565b60008135905061055181610abe565b92915050565b600082601f83011261056857600080fd5b8135610578848260208601610504565b91505092915050565b60008135905061059081610ad5565b92915050565b600080600080608085870312156105ac57600080fd5b60006105ba87828801610542565b94505060206105cb87828801610581565b935050604085013567ffffffffffffffff8111156105e857600080fd5b6105f487828801610557565b925050606085013567ffffffffffffffff81111561061157600080fd5b61061d87828801610557565b91505092959194509250565b60006106358383610751565b905092915050565b610646816109a5565b82525050565b61065581610957565b82525050565b61066481610957565b82525050565b600061067582610901565b61067f8185610924565b935083602082028501610691856108f1565b8060005b858110156106cd57848403895281516106ae8582610629565b94506106b983610917565b925060208a01995050600181019050610695565b50829750879550505050505092915050565b60006106ea8261090c565b6106f48185610935565b93506107048185602086016109ea565b61070d81610aad565b840191505092915050565b60006107238261090c565b61072d8185610946565b935061073d8185602086016109ea565b61074681610aad565b840191505092915050565b600060c083016000830151610769600086018261064c565b50602083015161077c602086018261064c565b50604083015161078f60408601826107e1565b50606083015184820360608601526107a782826106df565b91505060808301516107bc60808601826107e1565b5060a083015184820360a08601526107d482826106df565b9150508091505092915050565b6107ea8161099b565b82525050565b6107f98161099b565b82525050565b600060c082019050610814600083018961065b565b610821602083018861063d565b61082e60408301876107f0565b81810360608301526108408186610718565b905061084f60808301856107f0565b81810360a08301526108618184610718565b9050979650505050505050565b60006020820190508181036000830152610888818461066a565b905092915050565b6000604051905081810181811067ffffffffffffffff821117156108b7576108b6610a7e565b5b8060405250919050565b600067ffffffffffffffff8211156108dc576108db610a7e565b5b601f19601f8301169050602081019050919050565b6000819050602082019050919050565b600081519050919050565b600081519050919050565b6000602082019050919050565b600082825260208201905092915050565b600082825260208201905092915050565b600082825260208201905092915050565b60006109628261097b565b9050919050565b60006109748261097b565b9050919050565b600073ffffffffffffffffffffffffffffffffffffffff82169050919050565b6000819050919050565b60006109b0826109b7565b9050919050565b60006109c2826109c9565b9050919050565b60006109d48261097b565b9050919050565b82818337600083830152505050565b60005b83811015610a085780820151818401526020810190506109ed565b83811115610a17576000848401525b50505050565b60006002820490506001821680610a3557607f821691505b60208210811415610a4957610a48610a4f565b5b50919050565b7f4e487b7100000000000000000000000000000000000000000000000000000000600052602260045260246000fd5b7f4e487b7100000000000000000000000000000000000000000000000000000000600052604160045260246000fd5b6000601f19601f8301169050919050565b610ac781610969565b8114610ad257600080fd5b50565b610ade8161099b565b8114610ae957600080fd5b5056fea2646970667358221220bb68f0219b8d73d965c977339c1e8533a035f53394d4e843910651e21f421c2664736f6c63430008000033",
  "linkReferences": {},
  "deployedLinkReferences": {}
}